{"contracts/calculator.sol":{"Implementation":{"abi":[{"inputs":[{"internalType":"uint256","name":"a","type":"uint256"},{"internalType":"uint256","name":"b","type":"uint256"}],"name":"add","outputs":[],"stateMutability":"nonpayable","type":"function"},{"inputs":[],"name":"getResults","outputs":[{"internalType":"uint256","name":"","type":"uint256"}],"stateMutability":"nonpayable","type":"function"},{"inputs":[{"internalType":"uint256","name":"a","type":"uint256"},{"internalType":"uint256","name":"b","type":"uint256"}],"name":"multiply","outputs":[],"stateMutability":"nonpayable","type":"function"}],"evm":{"bytecode":{"linkReferences":{},"object":"608060405234801561001057600080fd5b50610169806100206000396000f3fe608060405234801561001057600080fd5b50600436106100415760003560e01c8063165c4a16146100465780634717f97c1461005b578063771602f714610070575b600080fd5b6100596100543660046100b2565b610083565b005b60025460405190815260200160405180910390f35b61005961007e3660046100b2565b61009e565b600082905560018190556100978183610103565b6002555050565b600082905560018190556100978183610120565b600080604083850312156100c557600080fd5b50508035926020909101359150565b7f4e487b7100000000000000000000000000000000000000000000000000000000600052601160045260246000fd5b808202811582820484141761011a5761011a6100d4565b92915050565b8082018082111561011a5761011a6100d456fea264697066735822122083860df437071995c854e9dd7f3c8fd1854ebbee18ea5bc6caebc249aafed28164736f6c63430008130033","opcodes":"PUSH1 0x80 PUSH1 0x40 MSTORE CALLVALUE DUP1 ISZERO PUSH2 0x10 JUMPI PUSH1 0x0 DUP1 REVERT JUMPDEST POP PUSH2 0x169 DUP1 PUSH2 0x20 PUSH1 0x0 CODECOPY PUSH1 0x0 RETURN INVALID PUSH1 0x80 PUSH1 0x40 MSTORE CALLVALUE DUP1 ISZERO PUSH2 0x10 JUMPI PUSH1 0x0 DUP1 REVERT JUMPDEST POP PUSH1 0x4 CALLDATASIZE LT PUSH2 0x41 JUMPI PUSH1 0x0 CALLDATALOAD PUSH1 0xE0 SHR DUP1 PUSH4 0x165C4A16 EQ PUSH2 0x46 JUMPI DUP1 PUSH4 0x4717F97C EQ PUSH2 0x5B JUMPI DUP1 PUSH4 0x771602F7 EQ PUSH2 0x70 JUMPI JUMPDEST PUSH1 0x0 DUP1 REVERT JUMPDEST PUSH2 0x59 PUSH2 0x54 CALLDATASIZE PUSH1 0x4 PUSH2 0xB2 JUMP JUMPDEST PUSH2 0x83 JUMP JUMPDEST STOP JUMPDEST PUSH1 0x2 SLOAD PUSH1 0x40 MLOAD SWAP1 DUP2 MSTORE PUSH1 0x20 ADD PUSH1 0x40 MLOAD DUP1 SWAP2 SUB SWAP1 RETURN JUMPDEST PUSH2 0x59 PUSH2 0x7E CALLDATASIZE PUSH1 0x4 PUSH2 0xB2 JUMP JUMPDEST PUSH2 0x9E JUMP JUMPDEST PUSH1 0x0 DUP3 SWAP1 SSTORE PUSH1 0x1 DUP2 SWAP1 SSTORE PUSH2 0x97 DUP2 DUP4 PUSH2 0x103 JUMP JUMPDEST PUSH1 0x2 SSTORE POP POP JUMP JUMPDEST PUSH1 0x0 DUP3 SWAP1 SSTORE PUSH1 0x1 DUP2 SWAP1 SSTORE PUSH2 0x97 DUP2 DUP4 PUSH2 0x120 JUMP JUMPDEST PUSH1 0x0 DUP1 PUSH1 0x40 DUP4 DUP6 SUB SLT ISZERO PUSH2 0xC5 JUMPI PUSH1 0x0 DUP1 REVERT JUMPDEST POP POP DUP1 CALLDATALOAD SWAP3 PUSH1 0x20 SWAP1 SWAP2 ADD CALLDATALOAD SWAP2 POP JUMP JUMPDEST PUSH32 0x4E487B7100000000000000000000000000000000000000000000000000000000 PUSH1 0x0 MSTORE PUSH1 0x11 PUSH1 0x4 MSTORE PUSH1 0x24 PUSH1 0x0 REVERT JUMPDEST DUP1 DUP3 MUL DUP2 ISZERO DUP3 DUP3 DIV DUP5 EQ OR PUSH2 0x11A JUMPI PUSH2 0x11A PUSH2 0xD4 JUMP JUMPDEST SWAP3 SWAP2 POP POP JUMP JUMPDEST DUP1 DUP3 ADD DUP1 DUP3 GT ISZERO PUSH2 0x11A JUMPI PUSH2 0x11A PUSH2 0xD4 JUMP INVALID LOG2 PUSH5 0x6970667358 0x22 SLT KECCAK256 DUP4 DUP7 0xD DELEGATECALL CALLDATACOPY SMOD NOT SWAP6 0xC8 SLOAD 0xE9 0xDD PUSH32 0x3C8FD1854EBBEE18EA5BC6CAEBC249AAFED28164736F6C634300081300330000 "},"methodIdentifiers":{"add(uint256,uint256)":"771602f7","getResults()":"4717f97c","multiply(uint256,uint256)":"165c4a16"}}}}}