{"contracts/storage_collision.sol":{"Proxy":{"abi":[{"inputs":[{"internalType":"address","name":"_implementation","type":"address"}],"stateMutability":"nonpayable","type":"constructor"},{"stateMutability":"payable","type":"fallback"},{"inputs":[],"name":"_getAdmin","outputs":[{"internalType":"address","name":"adm","type":"address"}],"stateMutability":"view","type":"function"},{"inputs":[{"internalType":"address","name":"newImplementation","type":"address"}],"name":"upgrade","outputs":[],"stateMutability":"nonpayable","type":"function"},{"stateMutability":"payable","type":"receive"}],"evm":{"bytecode":{"linkReferences":{},"object":"608060405234801561001057600080fd5b506040516103c83803806103c883398101604081905261002f916100a8565b61003833610047565b6100418161007b565b506100ff565b600061007460017fb53127684a568b3173ae13b9f8a6016e243e63b6e8ee1178d6a717850b5d61046100d8565b9190915550565b600061007460017f53fa80f10e1dcdb1bc9640c24c8d5c8b73d9ecee5dd8e7c2008c209dd80529fa6100d8565b6000602082840312156100ba57600080fd5b81516001600160a01b03811681146100d157600080fd5b9392505050565b818103818111156100f957634e487b7160e01b600052601160045260246000fd5b92915050565b6102ba8061010e6000396000f3fe60806040526004361061002d5760003560e01c80630900f01014610066578063839f5fb81461008657610034565b3661003457005b600061003e6100c4565b90503660008037600080366000845af43d6000803e80801561005f573d6000f35b3d6000fd5b005b34801561007257600080fd5b50610064610081366004610207565b6100f9565b34801561009257600080fd5b5061009b6101a5565b60405173ffffffffffffffffffffffffffffffffffffffff909116815260200160405180910390f35b6000806100f260017f53fa80f10e1dcdb1bc9640c24c8d5c8b73d9ecee5dd8e7c2008c209dd80529fa610244565b5492915050565b6101016101a5565b73ffffffffffffffffffffffffffffffffffffffff163373ffffffffffffffffffffffffffffffffffffffff1614610199576040517f08c379a000000000000000000000000000000000000000000000000000000000815260206004820152600960248201527f4e6f742061646d696e0000000000000000000000000000000000000000000000604482015260640160405180910390fd5b6101a2816101d3565b50565b6000806100f260017fb53127684a568b3173ae13b9f8a6016e243e63b6e8ee1178d6a717850b5d6104610244565b600061020060017f53fa80f10e1dcdb1bc9640c24c8d5c8b73d9ecee5dd8e7c2008c209dd80529fa610244565b9190915550565b60006020828403121561021957600080fd5b813573ffffffffffffffffffffffffffffffffffffffff8116811461023d57600080fd5b9392505050565b8181038181111561027e577f4e487b7100000000000000000000000000000000000000000000000000000000600052601160045260246000fd5b9291505056fea2646970667358221220f2025056d3025d8f9510bb1fafeb58de1d59976c0e7f8e9bd2bc94398887bda264736f6c63430008160033","opcodes":"PUSH1 0x80 PUSH1 0x40 MSTORE CALLVALUE DUP1 ISZERO PUSH2 0x10 JUMPI PUSH1 0x0 DUP1 REVERT JUMPDEST POP PUSH1 0x40 MLOAD PUSH2 0x3C8 CODESIZE SUB DUP1 PUSH2 0x3C8 DUP4 CODECOPY DUP2 ADD PUSH1 0x40 DUP2 SWAP1 MSTORE PUSH2 0x2F SWAP2 PUSH2 0xA8 JUMP JUMPDEST PUSH2 0x38 CALLER PUSH2 0x47 JUMP JUMPDEST PUSH2 0x41 DUP2 PUSH2 0x7B JUMP JUMPDEST POP PUSH2 0xFF JUMP JUMPDEST PUSH1 0x0 PUSH2 0x74 PUSH1 0x1 PUSH32 0xB53127684A568B3173AE13B9F8A6016E243E63B6E8EE1178D6A717850B5D6104 PUSH2 0xD8 JUMP JUMPDEST SWAP2 SWAP1 SWAP2 SSTORE POP JUMP JUMPDEST PUSH1 0x0 PUSH2 0x74 PUSH1 0x1 PUSH32 0x53FA80F10E1DCDB1BC9640C24C8D5C8B73D9ECEE5DD8E7C2008C209DD80529FA PUSH2 0xD8 JUMP JUMPDEST PUSH1 0x0 PUSH1 0x20 DUP3 DUP5 SUB SLT ISZERO PUSH2 0xBA JUMPI PUSH1 0x0 DUP1 REVERT JUMPDEST DUP2 MLOAD PUSH1 0x1 PUSH1 0x1 PUSH1 0xA0 SHL SUB DUP2 AND DUP2 EQ PUSH2 0xD1 JUMPI PUSH1 0x0 DUP1 REVERT JUMPDEST SWAP4 SWAP3 POP POP POP JUMP JUMPDEST DUP2 DUP2 SUB DUP2 DUP2 GT ISZERO PUSH2 0xF9 JUMPI PUSH4 0x4E487B71 PUSH1 0xE0 SHL PUSH1 0x0 MSTORE PUSH1 0x11 PUSH1 0x4 MSTORE PUSH1 0x24 PUSH1 0x0 REVERT JUMPDEST SWAP3 SWAP2 POP POP JUMP JUMPDEST PUSH2 0x2BA DUP1 PUSH2 0x10E PUSH1 0x0 CODECOPY PUSH1 0x0 RETURN INVALID PUSH1 0x80 PUSH1 0x40 MSTORE PUSH1 0x4 CALLDATASIZE LT PUSH2 0x2D JUMPI PUSH1 0x0 CALLDATALOAD PUSH1 0xE0 SHR DUP1 PUSH4 0x900F010 EQ PUSH2 0x66 JUMPI DUP1 PUSH4 0x839F5FB8 EQ PUSH2 0x86 JUMPI PUSH2 0x34 JUMP JUMPDEST CALLDATASIZE PUSH2 0x34 JUMPI STOP JUMPDEST PUSH1 0x0 PUSH2 0x3E PUSH2 0xC4 JUMP JUMPDEST SWAP1 POP CALLDATASIZE PUSH1 0x0 DUP1 CALLDATACOPY PUSH1 0x0 DUP1 CALLDATASIZE PUSH1 0x0 DUP5 GAS DELEGATECALL RETURNDATASIZE PUSH1 0x0 DUP1 RETURNDATACOPY DUP1 DUP1 ISZERO PUSH2 0x5F JUMPI RETURNDATASIZE PUSH1 0x0 RETURN JUMPDEST RETURNDATASIZE PUSH1 0x0 REVERT JUMPDEST STOP JUMPDEST CALLVALUE DUP1 ISZERO PUSH2 0x72 JUMPI PUSH1 0x0 DUP1 REVERT JUMPDEST POP PUSH2 0x64 PUSH2 0x81 CALLDATASIZE PUSH1 0x4 PUSH2 0x207 JUMP JUMPDEST PUSH2 0xF9 JUMP JUMPDEST CALLVALUE DUP1 ISZERO PUSH2 0x92 JUMPI PUSH1 0x0 DUP1 REVERT JUMPDEST POP PUSH2 0x9B PUSH2 0x1A5 JUMP JUMPDEST PUSH1 0x40 MLOAD PUSH20 0xFFFFFFFFFFFFFFFFFFFFFFFFFFFFFFFFFFFFFFFF SWAP1 SWAP2 AND DUP2 MSTORE PUSH1 0x20 ADD PUSH1 0x40 MLOAD DUP1 SWAP2 SUB SWAP1 RETURN JUMPDEST PUSH1 0x0 DUP1 PUSH2 0xF2 PUSH1 0x1 PUSH32 0x53FA80F10E1DCDB1BC9640C24C8D5C8B73D9ECEE5DD8E7C2008C209DD80529FA PUSH2 0x244 JUMP JUMPDEST SLOAD SWAP3 SWAP2 POP POP JUMP JUMPDEST PUSH2 0x101 PUSH2 0x1A5 JUMP JUMPDEST PUSH20 0xFFFFFFFFFFFFFFFFFFFFFFFFFFFFFFFFFFFFFFFF AND CALLER PUSH20 0xFFFFFFFFFFFFFFFFFFFFFFFFFFFFFFFFFFFFFFFF AND EQ PUSH2 0x199 JUMPI PUSH1 0x40 MLOAD PUSH32 0x8C379A000000000000000000000000000000000000000000000000000000000 DUP2 MSTORE PUSH1 0x20 PUSH1 0x4 DUP3 ADD MSTORE PUSH1 0x9 PUSH1 0x24 DUP3 ADD MSTORE PUSH32 0x4E6F742061646D696E0000000000000000000000000000000000000000000000 PUSH1 0x44 DUP3 ADD MSTORE PUSH1 0x64 ADD PUSH1 0x40 MLOAD DUP1 SWAP2 SUB SWAP1 REVERT JUMPDEST PUSH2 0x1A2 DUP2 PUSH2 0x1D3 JUMP JUMPDEST POP JUMP JUMPDEST PUSH1 0x0 DUP1 PUSH2 0xF2 PUSH1 0x1 PUSH32 0xB53127684A568B3173AE13B9F8A6016E243E63B6E8EE1178D6A717850B5D6104 PUSH2 0x244 JUMP JUMPDEST PUSH1 0x0 PUSH2 0x200 PUSH1 0x1 PUSH32 0x53FA80F10E1DCDB1BC9640C24C8D5C8B73D9ECEE5DD8E7C2008C209DD80529FA PUSH2 0x244 JUMP JUMPDEST SWAP2 SWAP1 SWAP2 SSTORE POP JUMP JUMPDEST PUSH1 0x0 PUSH1 0x20 DUP3 DUP5 SUB SLT ISZERO PUSH2 0x219 JUMPI PUSH1 0x0 DUP1 REVERT JUMPDEST DUP2 CALLDATALOAD PUSH20 0xFFFFFFFFFFFFFFFFFFFFFFFFFFFFFFFFFFFFFFFF DUP2 AND DUP2 EQ PUSH2 0x23D JUMPI PUSH1 0x0 DUP1 REVERT JUMPDEST SWAP4 SWAP3 POP POP POP JUMP JUMPDEST DUP2 DUP2 SUB DUP2 DUP2 GT ISZERO PUSH2 0x27E JUMPI PUSH32 0x4E487B7100000000000000000000000000000000000000000000000000000000 PUSH1 0x0 MSTORE PUSH1 0x11 PUSH1 0x4 MSTORE PUSH1 0x24 PUSH1 0x0 REVERT JUMPDEST SWAP3 SWAP2 POP POP JUMP INVALID LOG2 PUSH5 0x6970667358 0x22 SLT KECCAK256 CALLCODE MUL POP JUMP 0xD3 MUL 0x5D DUP16 SWAP6 LT 0xBB 0x1F 0xAF 0xEB PC 0xDE SAR MSIZE SWAP8 PUSH13 0xE7F8E9BD2BC94398887BDA264 PUSH20 0x6F6C634300081600330000000000000000000000 "},"methodIdentifiers":{"_getAdmin()":"839f5fb8","upgrade(address)":"0900f010"}},"storageLayout":{"storage":[],"types":null}}}}