{
  "_format": "hh-sol-artifact-1",
  "contractName": "TokenV1",
  "sourceName": "contracts/uups.sol",
  "abi": [
    {
      "inputs": [
        {
          "internalType": "address",
          "name": "target",
          "type": "address"
        }
      ],
      "name": "AddressEmptyCode",
      "type": "error"
    },
    {
      "inputs": [
        {
          "internalType": "address",
          "name": "implementation",
          "type": "address"
        }
      ],
      "name": "ERC1967InvalidImplementation",
      "type": "error"
    },
    {
      "inputs": [],
      "name": "ERC1967NonPayable",
      "type": "error"
    },
    {
      "inputs": [],
      "name": "FailedCall",
      "type": "error"
    },
    {
      "inputs": [],
      "name": "UUPSUnauthorizedCallContext",
      "type": "error"
    },
    {
      "inputs": [
        {
          "internalType": "bytes32",
          "name": "slot",
          "type": "bytes32"
        }
      ],
      "name": "UUPSUnsupportedProxiableUUID",
      "type": "error"
    },
    {
      "anonymous": false,
      "inputs": [
        {
          "indexed": true,
          "internalType": "address",
          "name": "implementation",
          "type": "address"
        }
      ],
      "name": "Upgraded",
      "type": "event"
    },
    {
      "inputs": [],
      "name": "UPGRADE_INTERFACE_VERSION",
      "outputs": [
        {
          "internalType": "string",
          "name": "",
          "type": "string"
        }
      ],
      "stateMutability": "view",
      "type": "function"
    },
    {
      "inputs": [
        {
          "internalType": "address",
          "name": "account",
          "type": "address"
        }
      ],
      "name": "balanceOf",
      "outputs": [
        {
          "internalType": "uint256",
          "name": "",
          "type": "uint256"
        }
      ],
      "stateMutability": "view",
      "type": "function"
    },
    {
      "inputs": [
        {
          "internalType": "string",
          "name": "_name",
          "type": "string"
        },
        {
          "internalType": "string",
          "name": "_symbol",
          "type": "string"
        },
        {
          "internalType": "address",
          "name": "_owner",
          "type": "address"
        }
      ],
      "name": "initialize",
      "outputs": [],
      "stateMutability": "nonpayable",
      "type": "function"
    },
    {
      "inputs": [
        {
          "internalType": "address",
          "name": "to",
          "type": "address"
        },
        {
          "internalType": "uint256",
          "name": "amount",
          "type": "uint256"
        }
      ],
      "name": "mint",
      "outputs": [],
      "stateMutability": "nonpayable",
      "type": "function"
    },
    {
      "inputs": [],
      "name": "proxiableUUID",
      "outputs": [
        {
          "internalType": "bytes32",
          "name": "",
          "type": "bytes32"
        }
      ],
      "stateMutability": "view",
      "type": "function"
    },
    {
      "inputs": [
        {
          "internalType": "address",
          "name": "newImplementation",
          "type": "address"
        },
        {
          "internalType": "bytes",
          "name": "data",
          "type": "bytes"
        }
      ],
      "name": "upgradeToAndCall",
      "outputs": [],
      "stateMutability": "payable",
      "type": "function"
    }
  ],
  "bytecode": "0x60a06040523060805234801561001457600080fd5b50608051610ba361003e6000396000818161035c01528181610385015261054f0152610ba36000f3fe6080604052600436106100655760003560e01c806352d1902d1161004357806352d1902d146100bf57806370a08231146100e7578063ad3cb1cc1461011d57600080fd5b8063077f224a1461006a57806340c10f191461008c5780634f1ef286146100ac575b600080fd5b34801561007657600080fd5b5061008a61008536600461087f565b610173565b005b34801561009857600080fd5b5061008a6100a73660046108f3565b610219565b61008a6100ba36600461091d565b610303565b3480156100cb57600080fd5b506100d4610322565b6040519081526020015b60405180910390f35b3480156100f357600080fd5b506100d461010236600461097f565b6001600160a01b031660009081526020819052604090205490565b34801561012957600080fd5b506101666040518060400160405280600581526020017f352e302e3000000000000000000000000000000000000000000000000000000081525081565b6040516100de919061099a565b6001600160a01b0381166101ce5760405162461bcd60e51b815260206004820152601360248201527f416c726561647920696e697469616c697a65640000000000000000000000000060448201526064015b60405180910390fd5b60026101da8482610a73565b5060036101e78382610a73565b506004805473ffffffffffffffffffffffffffffffffffffffff19166001600160a01b03929092169190911790555050565b6004546001600160a01b031633146102635760405162461bcd60e51b815260206004820152600d60248201526c2737ba103a34329037bbb732b960991b60448201526064016101c5565b6001600160a01b0382166102b95760405162461bcd60e51b815260206004820152600f60248201527f496e76616c69642061646472657373000000000000000000000000000000000060448201526064016101c5565b6001600160a01b038216600090815260208190526040812080548392906102e1908490610b33565b9250508190555080600160008282546102fa9190610b33565b90915550505050565b61030b610351565b6103148261040a565b61031e8282610457565b5050565b600061032c610544565b507f360894a13ba1a3210667c828492db98dca3e2076cc3735a920a3ca505d382bbc90565b306001600160a01b037f00000000000000000000000000000000000000000000000000000000000000001614806103ea57507f00000000000000000000000000000000000000000000000000000000000000006001600160a01b03166103de7f360894a13ba1a3210667c828492db98dca3e2076cc3735a920a3ca505d382bbc546001600160a01b031690565b6001600160a01b031614155b156104085760405163703e46dd60e11b815260040160405180910390fd5b565b6004546001600160a01b031633146104545760405162461bcd60e51b815260206004820152600d60248201526c2737ba103a34329037bbb732b960991b60448201526064016101c5565b50565b816001600160a01b03166352d1902d6040518163ffffffff1660e01b8152600401602060405180830381865afa9250505080156104b1575060408051601f3d908101601f191682019092526104ae91810190610b54565b60015b6104d957604051634c9c8ce360e01b81526001600160a01b03831660048201526024016101c5565b7f360894a13ba1a3210667c828492db98dca3e2076cc3735a920a3ca505d382bbc8114610535576040517faa1d49a4000000000000000000000000000000000000000000000000000000008152600481018290526024016101c5565b61053f838361058d565b505050565b306001600160a01b037f000000000000000000000000000000000000000000000000000000000000000016146104085760405163703e46dd60e11b815260040160405180910390fd5b610596826105e3565b6040516001600160a01b038316907fbc7cd75a20ee27fd9adebab32041f755214dbc6bffa90cc0225b39da2e5c2d3b90600090a28051156105db5761053f8282610667565b61031e61073d565b806001600160a01b03163b60000361061957604051634c9c8ce360e01b81526001600160a01b03821660048201526024016101c5565b7f360894a13ba1a3210667c828492db98dca3e2076cc3735a920a3ca505d382bbc805473ffffffffffffffffffffffffffffffffffffffff19166001600160a01b0392909216919091179055565b606060006106758484610775565b9050808015610698575060003d118061069857506000846001600160a01b03163b115b156106ad576106a561078a565b915050610737565b80156106f0576040517f9996b3150000000000000000000000000000000000000000000000000000000081526001600160a01b03851660048201526024016101c5565b3d15610703576106fe6107a4565b610735565b6040517fd6bda27500000000000000000000000000000000000000000000000000000000815260040160405180910390fd5b505b92915050565b3415610408576040517fb398979f00000000000000000000000000000000000000000000000000000000815260040160405180910390fd5b6000806000835160208501865af49392505050565b6040513d81523d6000602083013e3d602001810160405290565b6040513d6000823e3d81fd5b634e487b7160e01b600052604160045260246000fd5b600067ffffffffffffffff808411156107e1576107e16107b0565b604051601f8501601f19908116603f01168101908282118183101715610809576108096107b0565b8160405280935085815286868601111561082257600080fd5b858560208301376000602087830101525050509392505050565b600082601f83011261084d57600080fd5b61085c838335602085016107c6565b9392505050565b80356001600160a01b038116811461087a57600080fd5b919050565b60008060006060848603121561089457600080fd5b833567ffffffffffffffff808211156108ac57600080fd5b6108b88783880161083c565b945060208601359150808211156108ce57600080fd5b506108db8682870161083c565b9250506108ea60408501610863565b90509250925092565b6000806040838503121561090657600080fd5b61090f83610863565b946020939093013593505050565b6000806040838503121561093057600080fd5b61093983610863565b9150602083013567ffffffffffffffff81111561095557600080fd5b8301601f8101851361096657600080fd5b610975858235602084016107c6565b9150509250929050565b60006020828403121561099157600080fd5b61085c82610863565b60006020808352835180602085015260005b818110156109c8578581018301518582016040015282016109ac565b506000604082860101526040601f19601f8301168501019250505092915050565b600181811c908216806109fd57607f821691505b602082108103610a1d57634e487b7160e01b600052602260045260246000fd5b50919050565b601f82111561053f576000816000526020600020601f850160051c81016020861015610a4c5750805b601f850160051c820191505b81811015610a6b57828155600101610a58565b505050505050565b815167ffffffffffffffff811115610a8d57610a8d6107b0565b610aa181610a9b84546109e9565b84610a23565b602080601f831160018114610ad65760008415610abe5750858301515b600019600386901b1c1916600185901b178555610a6b565b600085815260208120601f198616915b82811015610b0557888601518255948401946001909101908401610ae6565b5085821015610b235787850151600019600388901b60f8161c191681555b5050505050600190811b01905550565b8082018082111561073757634e487b7160e01b600052601160045260246000fd5b600060208284031215610b6657600080fd5b505191905056fea2646970667358221220051201db5649d36d176b68057e9f252a9668dc6f7e71013e63605c9f411f201664736f6c63430008160033",
  "linkReferences": {},
  "deployedLinkReferences": {}
}