{
  "_format": "hh-sol-artifact-1",
  "contractName": "Implementation",
  "sourceName": "contracts/calculator.sol",
  "abi": [
    {
      "inputs": [
        {
          "internalType": "uint256",
          "name": "a",
          "type": "uint256"
        },
        {
          "internalType": "uint256",
          "name": "b",
          "type": "uint256"
        }
      ],
      "name": "add",
      "outputs": [],
      "stateMutability": "nonpayable",
      "type": "function"
    },
    {
      "inputs": [],
      "name": "getResults",
      "outputs": [
        {
          "internalType": "uint256",
          "name": "",
          "type": "uint256"
        }
      ],
      "stateMutability": "nonpayable",
      "type": "function"
    },
    {
      "inputs": [
        {
          "internalType": "uint256",
          "name": "a",
          "type": "uint256"
        },
        {
          "internalType": "uint256",
          "name": "b",
          "type": "uint256"
        }
      ],
      "name": "multiply",
      "outputs": [],
      "stateMutability": "nonpayable",
      "type": "function"
    }
  ],
  "bytecode": "0x608060405234801561001057600080fd5b50610169806100206000396000f3fe608060405234801561001057600080fd5b50600436106100415760003560e01c8063165c4a16146100465780634717f97c1461005b578063771602f714610070575b600080fd5b6100596100543660046100b2565b610083565b005b60025460405190815260200160405180910390f35b61005961007e3660046100b2565b61009e565b600082905560018190556100978183610103565b6002555050565b600082905560018190556100978183610120565b600080604083850312156100c557600080fd5b50508035926020909101359150565b7f4e487b7100000000000000000000000000000000000000000000000000000000600052601160045260246000fd5b808202811582820484141761011a5761011a6100d4565b92915050565b8082018082111561011a5761011a6100d456fea2646970667358221220248d5e997d4e9e028b223e30975257d5c7dc848005ec7a6cf3871ce021e4fbe164736f6c63430008160033",
  "linkReferences": {},
  "deployedLinkReferences": {}
}