{
  "_format": "hh-sol-artifact-1",
  "contractName": "Proxy",
  "sourceName": "contracts/storage_collision.sol",
  "abi": [
    {
      "inputs": [
        {
          "internalType": "address",
          "name": "_implementation",
          "type": "address"
        }
      ],
      "stateMutability": "nonpayable",
      "type": "constructor"
    },
    {
      "stateMutability": "payable",
      "type": "fallback"
    },
    {
      "inputs": [],
      "name": "_getAdmin",
      "outputs": [
        {
          "internalType": "address",
          "name": "adm",
          "type": "address"
        }
      ],
      "stateMutability": "view",
      "type": "function"
    },
    {
      "inputs": [
        {
          "internalType": "address",
          "name": "newImplementation",
          "type": "address"
        }
      ],
      "name": "upgrade",
      "outputs": [],
      "stateMutability": "nonpayable",
      "type": "function"
    },
    {
      "stateMutability": "payable",
      "type": "receive"
    }
  ],
  "bytecode": "0x608060405234801561001057600080fd5b506040516103c83803806103c883398101604081905261002f916100a8565b61003833610047565b6100418161007b565b506100ff565b600061007460017fb53127684a568b3173ae13b9f8a6016e243e63b6e8ee1178d6a717850b5d61046100d8565b9190915550565b600061007460017f53fa80f10e1dcdb1bc9640c24c8d5c8b73d9ecee5dd8e7c2008c209dd80529fa6100d8565b6000602082840312156100ba57600080fd5b81516001600160a01b03811681146100d157600080fd5b9392505050565b818103818111156100f957634e487b7160e01b600052601160045260246000fd5b92915050565b6102ba8061010e6000396000f3fe60806040526004361061002d5760003560e01c80630900f01014610066578063839f5fb81461008657610034565b3661003457005b600061003e6100c4565b90503660008037600080366000845af43d6000803e80801561005f573d6000f35b3d6000fd5b005b34801561007257600080fd5b50610064610081366004610207565b6100f9565b34801561009257600080fd5b5061009b6101a5565b60405173ffffffffffffffffffffffffffffffffffffffff909116815260200160405180910390f35b6000806100f260017f53fa80f10e1dcdb1bc9640c24c8d5c8b73d9ecee5dd8e7c2008c209dd80529fa610244565b5492915050565b6101016101a5565b73ffffffffffffffffffffffffffffffffffffffff163373ffffffffffffffffffffffffffffffffffffffff1614610199576040517f08c379a000000000000000000000000000000000000000000000000000000000815260206004820152600960248201527f4e6f742061646d696e0000000000000000000000000000000000000000000000604482015260640160405180910390fd5b6101a2816101d3565b50565b6000806100f260017fb53127684a568b3173ae13b9f8a6016e243e63b6e8ee1178d6a717850b5d6104610244565b600061020060017f53fa80f10e1dcdb1bc9640c24c8d5c8b73d9ecee5dd8e7c2008c209dd80529fa610244565b9190915550565b60006020828403121561021957600080fd5b813573ffffffffffffffffffffffffffffffffffffffff8116811461023d57600080fd5b9392505050565b8181038181111561027e577f4e487b7100000000000000000000000000000000000000000000000000000000600052601160045260246000fd5b9291505056fea2646970667358221220f2025056d3025d8f9510bb1fafeb58de1d59976c0e7f8e9bd2bc94398887bda264736f6c63430008160033",
  "linkReferences": {},
  "deployedLinkReferences": {}
}