{
  "_format": "hh-sol-artifact-1",
  "contractName": "TokenV2",
  "sourceName": "contracts/storage_collision.sol",
  "abi": [
    {
      "inputs": [
        {
          "internalType": "address",
          "name": "user",
          "type": "address"
        }
      ],
      "name": "balanceOf",
      "outputs": [
        {
          "internalType": "uint256",
          "name": "",
          "type": "uint256"
        }
      ],
      "stateMutability": "view",
      "type": "function"
    },
    {
      "inputs": [
        {
          "internalType": "address",
          "name": "",
          "type": "address"
        }
      ],
      "name": "balances",
      "outputs": [
        {
          "internalType": "uint256",
          "name": "",
          "type": "uint256"
        }
      ],
      "stateMutability": "view",
      "type": "function"
    },
    {
      "inputs": [
        {
          "internalType": "uint256",
          "name": "amount",
          "type": "uint256"
        }
      ],
      "name": "burn",
      "outputs": [],
      "stateMutability": "nonpayable",
      "type": "function"
    },
    {
      "inputs": [
        {
          "internalType": "address",
          "name": "to",
          "type": "address"
        },
        {
          "internalType": "uint256",
          "name": "amount",
          "type": "uint256"
        }
      ],
      "name": "mint",
      "outputs": [],
      "stateMutability": "nonpayable",
      "type": "function"
    },
    {
      "inputs": [],
      "name": "totalSupply",
      "outputs": [
        {
          "internalType": "uint256",
          "name": "",
          "type": "uint256"
        }
      ],
      "stateMutability": "view",
      "type": "function"
    },
    {
      "inputs": [
        {
          "internalType": "address",
          "name": "to",
          "type": "address"
        },
        {
          "internalType": "uint256",
          "name": "amount",
          "type": "uint256"
        }
      ],
      "name": "transfer",
      "outputs": [],
      "stateMutability": "nonpayable",
      "type": "function"
    }
  ],
  "bytecode": "0x608060405234801561001057600080fd5b506103f5806100206000396000f3fe608060405234801561001057600080fd5b50600436106100725760003560e01c806342966c681161005057806342966c68146100c757806370a08231146100da578063a9059cbb1461011057600080fd5b806318160ddd1461007757806327e235e31461009257806340c10f19146100b2575b600080fd5b61008060015481565b60405190815260200160405180910390f35b6100806100a03660046102ff565b60006020819052908152604090205481565b6100c56100c0366004610321565b610123565b005b6100c56100d536600461034b565b61017a565b6100806100e83660046102ff565b73ffffffffffffffffffffffffffffffffffffffff1660009081526020819052604090205490565b6100c561011e366004610321565b61021e565b73ffffffffffffffffffffffffffffffffffffffff821660009081526020819052604081208054839290610158908490610393565b9250508190555080600160008282546101719190610393565b90915550505050565b336000908152602081905260409020548111156101de5760405162461bcd60e51b815260206004820152601460248201527f496e73756666696369656e742062616c616e636500000000000000000000000060448201526064015b60405180910390fd5b33600090815260208190526040812080548392906101fd9084906103ac565b92505081905550806001600082825461021691906103ac565b909155505050565b3360009081526020819052604090205481111561027d5760405162461bcd60e51b815260206004820152601460248201527f496e73756666696369656e742062616c616e636500000000000000000000000060448201526064016101d5565b336000908152602081905260408120805483929061029c9084906103ac565b909155505073ffffffffffffffffffffffffffffffffffffffff821660009081526020819052604081208054839290610171908490610393565b803573ffffffffffffffffffffffffffffffffffffffff811681146102fa57600080fd5b919050565b60006020828403121561031157600080fd5b61031a826102d6565b9392505050565b6000806040838503121561033457600080fd5b61033d836102d6565b946020939093013593505050565b60006020828403121561035d57600080fd5b5035919050565b7f4e487b7100000000000000000000000000000000000000000000000000000000600052601160045260246000fd5b808201808211156103a6576103a6610364565b92915050565b818103818111156103a6576103a661036456fea264697066735822122076ad6d71da5da20004d80394aa1e98ce9fbaa4d0c7b4fee693d0cc3e4a88e38c64736f6c63430008130033",
  "linkReferences": {},
  "deployedLinkReferences": {}
}