{
  "_format": "hh-sol-artifact-1",
  "contractName": "TokenV1",
  "sourceName": "contracts/storage_collision.sol",
  "abi": [
    {
      "inputs": [
        {
          "internalType": "address",
          "name": "user",
          "type": "address"
        }
      ],
      "name": "balanceOf",
      "outputs": [
        {
          "internalType": "uint256",
          "name": "",
          "type": "uint256"
        }
      ],
      "stateMutability": "view",
      "type": "function"
    },
    {
      "inputs": [
        {
          "internalType": "address",
          "name": "",
          "type": "address"
        }
      ],
      "name": "balances",
      "outputs": [
        {
          "internalType": "uint256",
          "name": "",
          "type": "uint256"
        }
      ],
      "stateMutability": "view",
      "type": "function"
    },
    {
      "inputs": [
        {
          "internalType": "address",
          "name": "to",
          "type": "address"
        },
        {
          "internalType": "uint256",
          "name": "amount",
          "type": "uint256"
        }
      ],
      "name": "mint",
      "outputs": [],
      "stateMutability": "nonpayable",
      "type": "function"
    },
    {
      "inputs": [],
      "name": "totalSupply",
      "outputs": [
        {
          "internalType": "uint256",
          "name": "",
          "type": "uint256"
        }
      ],
      "stateMutability": "view",
      "type": "function"
    },
    {
      "inputs": [
        {
          "internalType": "address",
          "name": "to",
          "type": "address"
        },
        {
          "internalType": "uint256",
          "name": "amount",
          "type": "uint256"
        }
      ],
      "name": "transfer",
      "outputs": [],
      "stateMutability": "nonpayable",
      "type": "function"
    }
  ],
  "bytecode": "0x608060405234801561001057600080fd5b50610338806100206000396000f3fe608060405234801561001057600080fd5b50600436106100675760003560e01c806340c10f191161005057806340c10f19146100a757806370a08231146100bc578063a9059cbb146100f257600080fd5b806318160ddd1461006c57806327e235e314610087575b600080fd5b61007560015481565b60405190815260200160405180910390f35b61007561009536600461025b565b60006020819052908152604090205481565b6100ba6100b536600461027d565b610105565b005b6100756100ca36600461025b565b73ffffffffffffffffffffffffffffffffffffffff1660009081526020819052604090205490565b6100ba61010036600461027d565b61015c565b73ffffffffffffffffffffffffffffffffffffffff82166000908152602081905260408120805483929061013a9084906102d6565b92505081905550806001600082825461015391906102d6565b90915550505050565b336000908152602081905260409020548111156101d9576040517f08c379a000000000000000000000000000000000000000000000000000000000815260206004820152601460248201527f496e73756666696369656e742062616c616e6365000000000000000000000000604482015260640160405180910390fd5b33600090815260208190526040812080548392906101f89084906102ef565b909155505073ffffffffffffffffffffffffffffffffffffffff8216600090815260208190526040812080548392906101539084906102d6565b803573ffffffffffffffffffffffffffffffffffffffff8116811461025657600080fd5b919050565b60006020828403121561026d57600080fd5b61027682610232565b9392505050565b6000806040838503121561029057600080fd5b61029983610232565b946020939093013593505050565b7f4e487b7100000000000000000000000000000000000000000000000000000000600052601160045260246000fd5b808201808211156102e9576102e96102a7565b92915050565b818103818111156102e9576102e96102a756fea26469706673582212204a237a405472dfe292e1bc34f02f2a2420f6997c7180c29bbdec2e46ea5abaf364736f6c63430008130033",
  "linkReferences": {},
  "deployedLinkReferences": {}
}