{
  "_format": "hh-sol-artifact-1",
  "contractName": "CounterV2",
  "sourceName": "contracts/transparent_proxy.sol",
  "abi": [
    {
      "inputs": [],
      "name": "decrement",
      "outputs": [],
      "stateMutability": "nonpayable",
      "type": "function"
    },
    {
      "inputs": [],
      "name": "getCount",
      "outputs": [
        {
          "internalType": "uint256",
          "name": "",
          "type": "uint256"
        }
      ],
      "stateMutability": "view",
      "type": "function"
    },
    {
      "inputs": [],
      "name": "increment",
      "outputs": [],
      "stateMutability": "nonpayable",
      "type": "function"
    },
    {
      "inputs": [
        {
          "internalType": "uint256",
          "name": "amount",
          "type": "uint256"
        }
      ],
      "name": "incrementBy",
      "outputs": [],
      "stateMutability": "nonpayable",
      "type": "function"
    },
    {
      "inputs": [],
      "name": "reset",
      "outputs": [],
      "stateMutability": "nonpayable",
      "type": "function"
    }
  ],
  "bytecode": "0x608060405234801561001057600080fd5b5061019d806100206000396000f3fe608060405234801561001057600080fd5b50600436106100675760003560e01c8063a87d942c11610050578063a87d942c14610089578063d09de08a1461009e578063d826f88f146100a657600080fd5b806303df179c1461006c5780632baeceb714610081575b600080fd5b61007f61007a3660046100f3565b6100af565b005b61007f6100c8565b60005460405190815260200160405180910390f35b61007f6100e1565b61007f60008055565b806000808282546100c0919061013b565b909155505050565b60016000808282546100da9190610154565b9091555050565b60016000808282546100da919061013b565b60006020828403121561010557600080fd5b5035919050565b7f4e487b7100000000000000000000000000000000000000000000000000000000600052601160045260246000fd5b8082018082111561014e5761014e61010c565b92915050565b8181038181111561014e5761014e61010c56fea26469706673582212205fcbfacffd950483a443db35d2f0e8264e67bb7ec12b02db653e0d9193d3d11264736f6c63430008130033",
  "linkReferences": {},
  "deployedLinkReferences": {}
}