{
  "_format": "hh-sol-artifact-1",
  "contractName": "CounterV1",
  "sourceName": "contracts/transparent_proxy.sol",
  "abi": [
    {
      "inputs": [],
      "name": "getCount",
      "outputs": [
        {
          "internalType": "uint256",
          "name": "",
          "type": "uint256"
        }
      ],
      "stateMutability": "view",
      "type": "function"
    },
    {
      "inputs": [],
      "name": "increment",
      "outputs": [],
      "stateMutability": "nonpayable",
      "type": "function"
    },
    {
      "inputs": [
        {
          "internalType": "uint256",
          "name": "_count",
          "type": "uint256"
        }
      ],
      "name": "initialize",
      "outputs": [],
      "stateMutability": "nonpayable",
      "type": "function"
    }
  ],
  "bytecode": "0x608060405234801561001057600080fd5b50610112806100206000396000f3fe6080604052348015600f57600080fd5b5060043610603c5760003560e01c8063a87d942c146041578063d09de08a146056578063fe4b84df14605e575b600080fd5b60005460405190815260200160405180910390f35b605c606e565b005b605c60693660046085565b600055565b6001600080828254607e9190609d565b9091555050565b600060208284031215609657600080fd5b5035919050565b8082018082111560d6577f4e487b7100000000000000000000000000000000000000000000000000000000600052601160045260246000fd5b9291505056fea2646970667358221220d5a05d91594856da6188989cf23a29539c2fb0a69b9de30461e2d08d0a2ea4b464736f6c63430008130033",
  "linkReferences": {},
  "deployedLinkReferences": {}
}